:100000000C9469000C94E90A0C94100B0C94910068
:100010000C9491000C9491000C9491000C9491001C
:100020000C9491000C9491000C9491000C9491000C
:100030000C9491000C9491000C9491000C949100FC
:100040000C94370B0C9491000C9491000C9491003B
:100050000C9491000C9491000C9491000C949100DC
:100060000C9428080C9491001F1C1F1E1F1E1F1F9C
:100070001E1F1E1F000000080002010000030407ED
:100080000000000000000000010204081020408071
:1000900001020408102001020408102004040404D2
:1000A0000404040402020202020203030303030322
:1000B00000000000230026002900000000002500A9
:1000C00028002B0000000000240027002A004C0418
:1000D0003E0711241FBECFEFD8E0DEBFCDBF11E039
:1000E000A0E0B1E0ECE8FCE102C005900D92AC327A
:1000F000B107D9F722E0ACE2B1E001C01D92A5330F
:10010000B207E1F710E0C2EDD0E004C02297FE0193
:100110000E94260ECE3CD107C9F70E94E60D0C9432
:10012000440E0C940000CF92DF92EF92FF920E9457
:100130008D0B6B017C018091390190913A01A09166
:100140003B01B0913C01C81AD90AEA0AFB0A209186
:100150000101309102014091030150910401A8EE88
:10016000B3E00E94390EC616D706E806F906DCF0A1
:1001700080912E0190912F010A968A35910529F0E0
:1001800090932F0180932E0104C010922F011092A2
:100190002E010E948D0B6093390170933A01809378
:1001A0003B0190933C01FF90EF90DF90CF9008953A
:1001B00060E082E00E94470C60E083E00E94470C10
:1001C00061E081E00E94470C85E691E00E94C7094A
:1001D00042E050E063E970E080E00E94C90A20E05C
:1001E00042E060E18DE491E00E9444058DE491E0FD
:1001F0000C9402068091490190914A01A0914B0113
:10020000B0914C01409141015091420160914301F4
:1002100070914401841B950BA60BB70B8536910595
:10022000A105B1050CF404C180912C0190912D0120
:10023000892B09F0A1C040E064E08DE491E00E94C8
:100240002A05809138018A3030F469E071E08DE44C
:1002500091E00E941D0D4AE050E0609138018DE46C
:1002600091E00E94DE0D6BE071E08DE491E00E9470
:100270001D0D809137018A3030F469E071E08DE422
:1002800091E00E941D0D4AE050E0609137018DE43D
:1002900091E00E94DE0D6BE071E08DE491E00E9440
:1002A0001D0D809136018A3030F469E071E08DE4F3
:1002B00091E00E941D0D4AE050E0609136018DE40E
:1002C00091E00E94DE0D40E06DE08DE491E00E943F
:1002D0002A056DE071E08DE491E00E941D0D6091B2
:1002E00000018DE491E00E941F0D6FE071E08DE44C
:1002F00091E00E941D0D41E063E08DE491E00E94D9
:100300002A05809135018A3030F469E071E08DE48E
:1003100091E00E941D0D4AE050E0609135018DE4AE
:1003200091E00E94DE0D61E171E08DE491E00E94B8
:100330001D0D809134018A3030F469E071E08DE464
:1003400091E00E941D0D4AE050E0609134018DE47F
:1003500091E00E94DE0D61E171E08DE491E00E9488
:100360001D0D60913201709133014AE050E08DE43F
:1003700091E00E94C90D4CC08DE491E00E942305DC
:1003800040E066E08DE491E00E942A056DE071E0B6
:100390008DE491E00E941D0D609100018DE491E0DB
:1003A0000E941F0D6FE071E08DE491E00E941D0D31
:1003B00041E065E08DE491E00E942A0580913101E1
:1003C0008A3030F469E071E08DE491E00E941D0D07
:1003D0004AE050E0609131018DE491E00E94DE0D31
:1003E0006BE071E08DE491E00E941D0D8091300181
:1003F0008A3030F469E071E08DE491E00E941D0DD7
:100400004AE050E0609130018DE491E00E94DE0D01
:100410008091490190914A01A0914B01B0914C010A
:100420008093410190934201A0934301B093440112
:100430000895BF92CF92DF92EF92FF920F931F9396
:10044000CF93DF931F92CDB7DEB7B82E009149014D
:1004500010914A0120914B0130914C01C0903D0117
:10046000D0903E01E0903F01F0904001D901C801D9
:100470008C199D09AE09BF096C017D0194E6C9166E
:10048000D104E104F104A8F48DE491E069830E94B1
:10049000090649816B2D8DE491E00F90DF91CF919A
:1004A0001F910F91FF90EF90DF90CF90BF900C9431
:1004B0002A05A4E6CA1AD108E108F108B5E6CB1668
:1004C000D104E104F10470F48DE491E00F90DF9128
:1004D000CF911F910F91FF90EF90DF90CF90BF9041
:1004E0000C94020600933D0110933E0120933F01BE
:1004F000309340010F90DF91CF911F910F91FF90AA
:10050000EF90DF90CF90BF90089520912C01309113
:100510002D0180912E0190912F01232BE1F588323E
:10052000910509F442C054F484319105F1F08E3103
:10053000910531F10A9709F07EC00CC08C3391050A
:1005400009F448C08634910509F44FC0C29709F0F8
:1005500072C035C0809138018F5F80933801883137
:1005600009F069C01092380166C0809137018F5F31
:10057000809337018C3309F05EC0109237015BC065
:10058000809136018F5F809336018C3309F053C020
:100590001092360150C084319105D1F18E31910510
:1005A00009F440C00A9709F046C0809100018B34DD
:1005B00011F481E401C08BE4809300013CC0809180
:1005C00035018F5F809335018032A9F581E08093FA
:1005D000350131C0809134018F5F809334018D30BB
:1005E00051F581E08093340126C0809132019091D1
:1005F0003301019690933301809332018433984004
:10060000D1F482EB97E0909333018093320113C0D1
:10061000809131018F5F80933101883161F41092B4
:10062000310109C0809130018F5F809330018C339C
:1006300011F4109230010C94FA00CF92EF920F93C4
:100640001F93CF93DF9300D000D000D0CDB7DEB79B
:100650000E94810B6093490170934A0180934B0182
:1006600090934C0120912C0130912D0180912E010D
:1006700090912F01232B09F08EC08832910509F447
:1006800066C00CF040C08A30910509F45AC094F558
:10069000892B09F09FC0CE0101960E943D0A86E099
:1006A000FE013196A6E6B1E001900D928A95E1F740
:1006B0008DE491E00E9402068091690180933801E7
:1006C00080916A018093370180916B01809336019C
:1006D0008091680180933501809167018093340196
:1006E0008091660190E08053984F909333018093FE
:1006F00032014EC08431910539F14E9709F06AC03C
:1007000060E08BE02CC08C33910521F134F4C2976A
:1007100009F060C061E084E022C086349105E9F010
:100720008035910509F056C081E090E090932D014D
:1007300080932C018AE090E090932F0180932E010A
:1007400027C060E085E00BC060E088E008C060E0A2
:100750008EE005C061E087E002C061E08CE00E94AD
:1007600019026091320170913301C0903601E0901E
:100770003701009138012091350140913401CE01BB
:1007800001960E94B309CE0101960E94CD0922C0B4
:100790000E94FA001FC084319105A1F02CF40A9741
:1007A000C9F460E087E010C08E31910581F0889730
:1007B00089F410922D0110922C0110922F011092A9
:1007C0002E0108C061E086E00E94190203C061E0CA
:1007D00089E0FACF83E00E94B60C0197D1F562E37D
:1007E00070E080E090E00E94B00B80914901909110
:1007F0004A01A0914B01B0914C01409145015091AB
:1008000046016091470170914801841B950BA60B2E
:10081000B70B11E0893C9105A105B1050CF410E07E
:1008200083E00E94B60C0197A1F4112391F00E947D
:1008300085028091490190914A01A0914B01B091AC
:100840004C018093450190934601A0934701B093DA
:10085000480180910001813471F4909130018091C0
:100860003701981308C09091310180913801981395
:1008700002C061E001C060E081E00E94800C269629
:100880000FB6F894DEBF0FBECDBFDF91CF911F91A1
:100890000F91EF90CF900895CF92EF920F9340E099
:1008A00050E0BA0186E691E00E94550984E0C82E26
:1008B00095E0E92E06E027E04BE06CE08DE491E066
:1008C0000E94E2050E94810B6093490170934A01E6
:1008D00080934B0190934C010E94810B60934501E2
:1008E0007093460180934701909348010E94810BC9
:1008F00060934101709342018093430190934401BE
:100900000E94810B60933D0170933E0180933F01F3
:10091000909340010F91EF90CF900895CF93DF9384
:10092000EC0160E08E810E94800C81E090E00E94EA
:10093000D80B61E08E810E94800C81E090E00E94E3
:10094000D80B60E08E810E94800C84E690E0DF91FD
:10095000CF910C94D80BEF92FF920F931F93CF93EC
:10096000DF938C01C0E0D0E0E62EF12CB7010C2E15
:1009700002C0759567950A94E2F76170F801EC0F73
:10098000FD1F87810E94800C2196C430D10571F72C
:10099000C801DF91CF911F910F91FF90EF900C94C0
:1009A0008E04EF92FF920F931F93CF93DF938C01EE
:1009B000C0E0D0E0E62EF12CB7010C2E02C07595F8
:1009C00067950A94E2F76170F801EC0FFD1F8781CB
:1009D0000E94800C2196C830D10571F7C801DF91C3
:1009E000CF911F910F91FF90EF900C948E041F9365
:1009F000CF93DF93EC01162F642F8C810E94800C23
:100A00008D818F3F19F060E00E94800C8F85612FEF
:100A100084FF06C0CE01DF91CF911F910C94D104C9
:100A200070E084E0759567958A95E1F7CE010E94A4
:100A3000AB04612FCE01DF91CF911F910C94AB04D9
:100A400040E00C94F70461E00E94200580ED97E0FF
:100A50000C94D80B443008F043E0FC012389421782
:100A600010F04FEF420FFC01E40FF11D2489260F17
:100A70002068622F0C942005FC016089262F2460D9
:100A8000208B6C600C9420050F931F93CF93DF9302
:100A9000EC01423018F08F8588608F874B8B1C8A61
:100AA00080E48D8B6E8B70E0605C7F4F6F8B2223B8
:100AB00029F0413019F48F8584608F8761E08C8143
:100AC0000E94470C8D818F3F19F061E00E94470C16
:100AD00061E08E810E94470C00E010E08F8584FF6A
:100AE00003C088E090E002C084E090E00817190796
:100AF00054F4FE01E00FF11F61E087810E94470C72
:100B00000F5F1F4FEBCF80E593EC0E94D80B60E0A6
:100B10008C810E94800C60E08E810E94800C8D810F
:100B20008F3F19F060E00E94800C6F8564FD1DC04E
:100B300063E0CE010E94AB0484E991E10E94D80BEE
:100B400063E0CE010E94AB0484E991E10E94D80BDE
:100B500063E0CE010E94AB0486E990E00E94D80BCE
:100B600062E0CE010E94AB0416C06062CE010E941A
:100B7000200584E991E10E94D80B6F856062CE0167
:100B80000E94200586E990E00E94D80B6F85606284
:100B9000CE010E9420056F856062CE010E94200573
:100BA00084E0888BCE010E943C05CE010E94230583
:100BB00082E0898B66E0CE01DF91CF911F910F918A
:100BC0000C942005CF92EF920F93FC0113821282B6
:100BD00087E191E09183808364838FEF85834683EF
:100BE00027830087E186C2861386148615861686BB
:100BF000178620E041E060E1CF010F91EF90CF90A8
:100C00000C944405FC0160896D7F608B68600C94D6
:100C10002005FC016089262F2260208B6A600C94DD
:100C2000200541E00E94F70481E090E00895809162
:100C30009C0190E020919D01821B910908952091D3
:100C40009D0180919C01281750F4E22FF0E0E256BC
:100C5000FE4F808190E02F5F20939D0108958FEFDC
:100C60009FEF0895E0919D0180919C01E81730F479
:100C7000F0E0E256FE4F808190E008958FEF9FEF05
:100C800008950895CF92DF92EF92FF920F931F93F2
:100C9000CF93DF937C01CB018A012091780122233D
:100CA00089F0EB016B01C40ED51ECC15DD0569F092
:100CB0006991D701ED91FC910190F081E02DC70180
:100CC0000995F3CF642F0E94FF07C801DF91CF91F0
:100CD0001F910F91FF90EF90DF90CF900895CF93E9
:100CE000DF931F92CDB7DEB769832091780122236D
:100CF000D1F020917901203240F021E030E0FC0178
:100D00003383228380E090E015C080917A01E82F40
:100D1000F0E0E558FE4F998190838F5F80937A01D0
:100D20008093790105C061E0CE0101960E94FF0722
:100D300081E090E00F90DF91CF910895FC01138244
:100D4000128248EE53E060E070E04483558366838E
:100D500077838FE191E091838083089510929D01C4
:100D600010929C0110927A01109279010C94420722
:100D700081E08093780160939B0110927A01109238
:100D8000790108950C94B8060F93062F21E0409145
:100D900079016BE771E080919B010E94A807109296
:100DA0007A0110927901109278010F9108958F9233
:100DB0009F92AF92BF92CF92DF92EF92FF920F93EA
:100DC0001F93CF93DF93EC01F62ED42E48015901E7
:100DD000EE2019F10E94B8061E2D143008F013E021
:100DE0001150B8F0E881F98128E0129FB001112478
:100DF000A501940104C056954795379527956A95A6
:100E0000D2F7CA01B9010190F081E02DCE01099518
:100E1000E7CF60E0CE010E94C4064D2D413208F0BC
:100E200040E22C2D6EE971E08F2D0E946007109238
:100E30009D0180939C01DF91CF911F910F91FF90B5
:100E4000EF90DF90CF90BF90AF909F908F900895DC
:100E5000CF92EF920F931F93C22EE12C00E010E08F
:100E600098010E94D7061F910F91EF90CF9008959F
:100E700021E00C94280761E00C94C4068CE691E014
:100E80000C949E0610922B0281E08093290210920E
:100E9000280261E082E10E94800C61E083E10E940F
:100EA000800CE9EBF0E080818E7F808380818D7FF4
:100EB000808388E48093B80085E48093BC00089523
:100EC000413208F043C090912B029111FCCF91E088
:100ED00090932B02209329022FEF2093BE011092B2
:100EE0000302240F2093020290932A0290912A0277
:100EF000880F892B80932A0280912802813061F427
:100F00001092280280912A028093BB008091BC003D
:100F100083FDF8CF85EC01C085EE8093BC00809105
:100F20002B028130E1F380910302841710F4409189
:100F3000030224E032E0FB01D9018A2F821B8417CF
:100F400018F48D918193F9CF842F089580E008954E
:100F50000F93413208F04AC090912B029111FCCFBF
:100F600092E090932B02009329029FEF9093BE0191
:100F70001092030240930202FB0164E072E0DB0185
:100F80009A2F961B941718F491919D93F9CF109274
:100F90002A0290912A02880F892B80932A0280913D
:100FA0002802813061F41092280280912A028093F5
:100FB000BB008091BC0083FDF8CF85EC01C085EEBD
:100FC0008093BC00222321F080912B028230E1F338
:100FD0008091BE018F3F61F08091BE01803251F05F
:100FE0008091BE01803341F483E007C081E005C0F9
:100FF00080E003C082E001C084E00F910895613277
:1010000098F420912B02243089F46093E001FC01D4
:1010100082EE91E0DC012A2F281B261718F421917B
:101020002D93F9CF80E0089581E0089582E008953E
:1010300085ED8093BC008091BC0084FDFCCF1092B4
:101040002B02089585EC8093BC0010922B0208952A
:101050001F920F920FB60F9211242F933F934F932D
:101060005F936F937F938F939F93AF93BF93EF9310
:10107000FF938091B900887F803609F49EC078F58F
:10108000883209F45DC090F4803109F456C038F418
:10109000882309F4F5C0883009F44FC0F5C08831C1
:1010A00009F44EC0803209F45FC0EEC0803409F408
:1010B0006AC058F4803309F457C0883309F0E4C09B
:1010C0008093BE010E942208DFC0803509F44FC022
:1010D000883509F45DC0883409F0D6C0D3C088399A
:1010E00009F4C4C0A8F4883709F467C038F4883616
:1010F00009F463C0803709F460C0C6C0883809F4B9
:10110000B5C0803909F45FC0803809F0BDC05BC04C
:10111000803B09F483C038F4803A09F466C0883A09
:1011200009F47CC0B1C0803C09F4A4C0883C09F437
:10113000A1C0883B09F487C0A7C080912A0210C0D3
:101140009091030280910202981770F5E0910302DA
:1011500081E08E0F80930302F0E0EC5FFD4F808111
:101160008093BB0085EC83C08093BE018BC0E0916F
:10117000030281E08E0F809303028091BB00F0E0B8
:10118000EC5FFD4F808390910302809102026BC05F
:10119000E091030281E08E0F809303028091BB00F7
:1011A000F0E0EC5FFD4F80838091290281116AC0DD
:1011B00081E08093280284EA5EC083E080932B0262
:1011C0001092BF01CFCF8091BF01803208F04EC096
:1011D000E091BF0181E08E0F8093BF018091BB0041
:1011E000F0E0E054FE4F8083BDCF0E942208809142
:1011F000BF01803230F4E091BF01F0E0E054FE4FD7
:1012000010826091BF0170E0E0912402F09125020C
:1012100080EC91E009951092BF0136C084E0809384
:101220002B021092E1011092E001E0912602F09170
:10123000270209958091E001811105C081E080932A
:10124000E0011092E201E091E10181E08E0F8093D4
:10125000E101F0E0EE51FE4F80818093BB00909160
:10126000E1018091E001981708F47CCF85E8809334
:10127000BC000AC085EC8093BC0010922B0204C015
:101280001092BE010E941808FF91EF91BF91AF919B
:101290009F918F917F916F915F914F913F912F918E
:1012A0000F900FBE0F901F901895CF92DF92EF9284
:1012B000FF92CF93DF93EC01405853446D4678433F
:1012C000ECE3CE2ED12CE12CF12CCB01BA01A701FD
:1012D00096010E94020E6D83CA01B901A701960111
:1012E0000E94020E6C83CA01B90128E130E040E09F
:1012F00050E00E94020E6B83188243E95EEFE881A2
:101300008E2F8370A1E009F0A0E08A2F90E0BC014D
:1013100063597E4F2617370740F0BA01681B790BD7
:10132000260F371FEF5FE883EACF81E08983898149
:10133000E82FF0E0E959FF4FE491AA2319F0823039
:1013400009F4EF5FF0E02E173F0720F02E1B3F0B54
:101350008F5FECCF2F5F2A83DF91CF91FF90EF90CB
:10136000DF90CF900895CF92EF920F93FC01603DF4
:1013700087E0780710F0605D7740608341832283C7
:101380000383E482C5820F91EF90CF9008958CE69D
:1013900091E00E94AE0681E008951F93CF93DF9302
:1013A000EC0168E670E08CE691E00E94C20660E025
:1013B0008CE691E00E946F062D811AE0822F612F4A
:1013C0000E94F60D682F660F680F660F620F8CE69D
:1013D00091E00E946F062C81822F612F0E94F60DF2
:1013E000682F660F680F660F620F8CE691E00E940F
:1013F0006F062B81822F612F0E94F60D682F660FDA
:10140000680F660F620F8CE691E00E946F0660E045
:101410008CE691E00E946F062A81822F612F0E9444
:10142000F60D682F660F680F660F620F8CE691E06D
:101430000E946F062981822F612F0E94F60D682F6E
:10144000660F680F660F620F8CE691E00E946F06D0
:101450002881822F612F0E94F60D682F660F680F7A
:10146000660F620F8CE691E00E946F068CE691E0B9
:10147000DF91CF911F910C943B07CF92DF92EF92B7
:10148000FF920F931F93CF93DF93EC0168E670E018
:101490008CE691E00E94C20660E08CE691E00E943A
:1014A0006F068CE691E00E943B0747E050E068E65B
:1014B00070E08CE691E00E9438078CE691E00E9493
:1014C0001F068F77982F92959F701AEF082F919F84
:1014D000000D11248CE691E00E941F069C01332729
:1014E000F4E035952795FA95E1F7F82E129FF00C68
:1014F00011248CE691E00E941F069C013327A4E092
:1015000035952795AA95E1F7E82E129FE00C112456
:101510008CE691E00E941F068CE691E00E941F0677
:101520009C013327B4E035952795BA95E1F7D82E7D
:10153000129FD00C11248CE691E00E941F069C01A2
:10154000332794E0359527959A95E1F7C82E129F99
:10155000C00C11248CE691E00E941F069C013327E9
:1015600044E0359527954A95E1F7129F800D1124A7
:101570008883C982DA82EB82FC820D83CE01DF91FF
:10158000CF911F910F91FF90EF90DF90CF90089532
:1015900008958230E8F4E82FF0E0EE0FFF1FEB5FD4
:1015A000FE4F71836083813041F0809169008C7FB0
:1015B000842B80936900E89A089580916900440F14
:1015C000551F440F551F837F842B80936900E99A30
:1015D00008951F920F920FB60F9211242F933F93ED
:1015E0004F935F936F937F938F939F93AF93BF932B
:1015F000EF93FF93E0910501F09106010995FF91AA
:10160000EF91BF91AF919F918F917F916F915F917A
:101610004F913F912F910F900FBE0F901F901895F3
:101620001F920F920FB60F9211242F933F934F9357
:101630005F936F937F938F939F93AF93BF93EF933A
:10164000FF93E0910701F09108010995FF91EF9157
:10165000BF91AF919F918F917F916F915F914F91CA
:101660003F912F910F900FBE0F901F9018951F92D2
:101670000F920FB60F9211242F933F938F939F9346
:10168000AF93BF9380912D0290912E02A0912F02D3
:10169000B091300230912C0223E0230F2D3720F43B
:1016A0000196A11DB11D05C026E8230F0296A11DBC
:1016B000B11D20932C0280932D0290932E02A093B3
:1016C0002F02B09330028091310290913202A091AA
:1016D0003302B09134020196A11DB11D80933102F5
:1016E00090933202A0933302B0933402BF91AF9132
:1016F0009F918F913F912F910F900FBE0F901F9050
:1017000018952FB7F89460912D0270912E02809158
:101710002F02909130022FBF08953FB7F894809127
:10172000310290913202A0913302B091340226B579
:10173000A89B05C02F3F19F00196A11DB11D3FBF09
:101740006627782F892F9A2F620F711D811D911D99
:1017500042E0660F771F881F991F4A95D1F70895B9
:10176000CF92DF92EF92FF92CF93DF936B017C01D8
:101770000E948D0BEB01C114D104E104F10489F046
:101780000E94F50D0E948D0B6C1B7D0B683E734013
:1017900090F381E0C81AD108E108F108C851DC4F84
:1017A000EACFDF91CF91FF90EF90DF90CF90089537
:1017B0008230910538F0880F991F880F991F05977F
:1017C0000197F1F70895789484B5826084BD84B55B
:1017D000816084BD85B5826085BD85B5816085BD2C
:1017E000EEE6F0E0808181608083E1E8F0E0108245
:1017F000808182608083808181608083E0E8F0E086
:10180000808181608083E1EBF0E08081846080836F
:10181000E0EBF0E0808181608083EAE7F0E08081A6
:101820008460808380818260808380818160808306
:101830008081806880831092C1000895833081F098
:1018400028F4813099F08230A1F008958730A9F012
:101850008830B9F08430D1F4809180008F7D03C04E
:10186000809180008F7780938000089584B58F7772
:1018700002C084B58F7D84BD08958091B0008F77BC
:1018800003C08091B0008F7D8093B0000895CF9306
:10189000DF9390E0FC01E857FF4F2491FC01E456F0
:1018A000FF4F8491882349F190E0880F991FFC0134
:1018B000EC53FF4FA591B49186549F4FFC01C59105
:1018C000D4919FB7611108C0F8948C912095822320
:1018D0008C93888182230AC0623051F4F8948C91F1
:1018E000322F309583238C938881822B888304C088
:1018F000F8948C91822B8C939FBFDF91CF910895A8
:101900000F931F93CF93DF931F92CDB7DEB7282F8E
:1019100030E0F901EC58FF4F8491F901E857FF4F8F
:101920001491F901E456FF4F04910023C9F0882374
:1019300021F069830E941E0C6981E02FF0E0EE0F18
:10194000FF1FE654FF4FA591B4919FB7F8948C9177
:10195000611103C01095812301C0812B8C939FBF1F
:101960000F90DF91CF911F910F910895CF93DF9347
:10197000282F30E0F901EC58FF4F8491F901E85726
:10198000FF4FD491F901E456FF4FC491CC2391F05D
:1019900081110E941E0CEC2FF0E0EE0FFF1FE055AE
:1019A000FF4FA591B4912C912D2381E090E021F47B
:1019B00080E002C080E090E0DF91CF910895CF9267
:1019C000DF92EF92FF920F931F93CF93DF937C01EF
:1019D0006A01EB0100E010E00C151D0571F0699142
:1019E000D701ED91FC910190F081E02DC70109959F
:1019F000892B19F00F5F1F4FEFCFC801DF91CF91F7
:101A00001F910F91FF90EF90DF90CF900895611597
:101A1000710581F0DB010D900020E9F7AD01415027
:101A20005109461B570BDC01ED91FC910280F381BB
:101A3000E02D099480E090E008950C94070DDC01FE
:101A4000ED91FC910190F081E02D09948F929F928D
:101A5000AF92BF92CF92DF92EF92FF920F931F93BC
:101A6000CF93DF93CDB7DEB7A1970FB6F894DEBF63
:101A70000FBECDBF7C01C42EE52FCB01D22E19A203
:101A800021E02D1510F02AE0D22E8E010F5D1F4FA0
:101A90008D2C912CA12CB12C6C2D7E2FA5019401A5
:101AA0000E94020E8C2DD29E801911240150110922
:101AB0008A3014F4805D01C0895CF80180832115AF
:101AC00031054105510521F0C22EE32FCA01E4CFB3
:101AD000B801C7010E94070DA1960FB6F894DEBFAA
:101AE0000FBECDBFDF91CF911F910F91FF90EF906F
:101AF000DF90CF90BF90AF909F908F900895CF923E
:101B0000DF92EF92FF920F931F93CF93DF93EC013D
:101B10006A017B012115310579F4E881F981019091
:101B2000F081E02D642FDF91CF911F910F91FF90F5
:101B3000EF90DF90CF9009942A303105E9F477FFD8
:101B40001AC06DE20E941F0D8C0144275527BA016F
:101B50004C195D096E097F092AE0CE010E94260D0D
:101B6000800F911FDF91CF911F910F91FF90EF9008
:101B7000DF90CF9008952AE0B701A601CE01DF9152
:101B8000CF911F910F91FF90EF90DF90CF900C9429
:101B9000260D9A01AB01662757FD6095762F0C94B0
:101BA0007F0D2115310541F4DC01ED91FC9101908F
:101BB000F081E02D642F09940C94260D9A01462F94
:101BC00050E060E070E00C94D10D08950E94E30BAA
:101BD0000E94E50D0E94D800C0E0D0E00E941D03E5
:101BE0002097E1F30E940000F9CF0895991B79E056
:101BF00004C0991F961708F0961B881F7A95C9F79D
:101C000080950895A1E21A2EAA1BBB1BFD010DC0F1
:101C1000AA1FBB1FEE1FFF1FA217B307E407F5079C
:101C200020F0A21BB30BE40BF50B661F771F881F78
:101C3000991F1A9469F760957095809590959B010E
:101C4000AC01BD01CF010895EE0FFF1F0590F49187
:101C5000E02D0994A29FB001B39FC001A39F700D16
:101C6000811D1124911DB29F700D811D1124911DA4
:101C700008950E942A0EA59F900DB49F900DA49FD9
:0C1C8000800D911D11240895F894FFCFF1
:101C8C004B64000000C80AC80A30003A002800293A
:101C9C00002F00000000001106DF0C000000006F98
:0C1CAC0006420617061F0632064106001D
:00000001FF
